{
  "contractName": "TodosContract",
  "abi": [
    {
      "inputs": [],
      "payable": false,
      "stateMutability": "nonpayable",
      "type": "constructor"
    },
    {
      "anonymous": false,
      "inputs": [
        {
          "indexed": false,
          "internalType": "uint256",
          "name": "_id",
          "type": "uint256"
        }
      ],
      "name": "TodoAdded",
      "type": "event"
    },
    {
      "anonymous": false,
      "inputs": [
        {
          "indexed": false,
          "internalType": "uint256",
          "name": "_id",
          "type": "uint256"
        }
      ],
      "name": "TodoDeleted",
      "type": "event"
    },
    {
      "anonymous": false,
      "inputs": [
        {
          "indexed": false,
          "internalType": "uint256",
          "name": "_id",
          "type": "uint256"
        }
      ],
      "name": "TodoEdited",
      "type": "event"
    },
    {
      "constant": true,
      "inputs": [],
      "name": "todoCount",
      "outputs": [
        {
          "internalType": "uint256",
          "name": "",
          "type": "uint256"
        }
      ],
      "payable": false,
      "stateMutability": "view",
      "type": "function"
    },
    {
      "constant": true,
      "inputs": [
        {
          "internalType": "uint256",
          "name": "",
          "type": "uint256"
        }
      ],
      "name": "todos",
      "outputs": [
        {
          "internalType": "uint256",
          "name": "id",
          "type": "uint256"
        },
        {
          "internalType": "string",
          "name": "todoTitle",
          "type": "string"
        },
        {
          "internalType": "string",
          "name": "todoCategory",
          "type": "string"
        },
        {
          "internalType": "uint256",
          "name": "timeStamp",
          "type": "uint256"
        }
      ],
      "payable": false,
      "stateMutability": "view",
      "type": "function"
    },
    {
      "constant": false,
      "inputs": [
        {
          "internalType": "string",
          "name": "_todoTitle",
          "type": "string"
        },
        {
          "internalType": "string",
          "name": "_todoCategory",
          "type": "string"
        },
        {
          "internalType": "uint256",
          "name": "timeStamp",
          "type": "uint256"
        }
      ],
      "name": "addTodo",
      "outputs": [],
      "payable": false,
      "stateMutability": "nonpayable",
      "type": "function"
    },
    {
      "constant": false,
      "inputs": [
        {
          "internalType": "uint256",
          "name": "_id",
          "type": "uint256"
        }
      ],
      "name": "deleteTodo",
      "outputs": [],
      "payable": false,
      "stateMutability": "nonpayable",
      "type": "function"
    },
    {
      "constant": false,
      "inputs": [
        {
          "internalType": "uint256",
          "name": "_id",
          "type": "uint256"
        },
        {
          "internalType": "string",
          "name": "_todoTitle",
          "type": "string"
        },
        {
          "internalType": "string",
          "name": "_todoCategory",
          "type": "string"
        }
      ],
      "name": "editTodo",
      "outputs": [],
      "payable": false,
      "stateMutability": "nonpayable",
      "type": "function"
    }
  ],
  "bytecode": "0x608060405234801561001057600080fd5b5060008081905550610937806100276000396000f3fe608060405234801561001057600080fd5b50600436106100575760003560e01c80636e3c67381461005c578063938a219d1461008a578063bc8bc2b4146101e6578063f62a69c114610307578063fe0dee1714610463575b600080fd5b6100886004803603602081101561007257600080fd5b8101908080359060200190929190505050610481565b005b6101e4600480360360608110156100a057600080fd5b8101908080359060200190929190803590602001906401000000008111156100c757600080fd5b8201836020820111156100d957600080fd5b803590602001918460018302840111640100000000831117156100fb57600080fd5b91908080601f016020809104026020016040519081016040528093929190818152602001838380828437600081840152601f19601f8201169050808301925050505050505091929192908035906020019064010000000081111561015e57600080fd5b82018360208201111561017057600080fd5b8035906020019184600183028401116401000000008311171561019257600080fd5b91908080601f016020809104026020016040519081016040528093929190818152602001838380828437600081840152601f19601f820116905080830192505050505050509192919290505050610501565b005b610212600480360360208110156101fc57600080fd5b81019080803590602001909291905050506105d8565b604051808581526020018060200180602001848152602001838103835286818151815260200191508051906020019080838360005b83811015610262578082015181840152602081019050610247565b50505050905090810190601f16801561028f5780820380516001836020036101000a031916815260200191505b50838103825285818151815260200191508051906020019080838360005b838110156102c85780820151818401526020810190506102ad565b50505050905090810190601f1680156102f55780820380516001836020036101000a031916815260200191505b50965050505050505060405180910390f35b6104616004803603606081101561031d57600080fd5b810190808035906020019064010000000081111561033a57600080fd5b82018360208201111561034c57600080fd5b8035906020019184600183028401116401000000008311171561036e57600080fd5b91908080601f016020809104026020016040519081016040528093929190818152602001838380828437600081840152601f19601f820116905080830192505050505050509192919290803590602001906401000000008111156103d157600080fd5b8201836020820111156103e357600080fd5b8035906020019184600183028401116401000000008311171561040557600080fd5b91908080601f016020809104026020016040519081016040528093929190818152602001838380828437600081840152601f19601f82011690508083019250505050505050919291929080359060200190929190505050610738565b005b61046b61080f565b6040518082815260200191505060405180910390f35b600160008281526020019081526020016000206000808201600090556001820160006104ad9190610815565b6002820160006104bd9190610815565b600382016000905550507f1072e4eeea43a52d09f5b6dfc870a079948f706133840ce9239aebc57fabb65f816040518082815260200191505060405180910390a150565b604051806080016040528084815260200183815260200182815260200160016000868152602001908152602001600020600301548152506001600085815260200190815260200160002060008201518160000155602082015181600101908051906020019061057192919061085d565b50604082015181600201908051906020019061058e92919061085d565b50606082015181600301559050507feec6cbf19f825fa29ac63f8a0ecc673af6144c77a4ef506f8cc955b56805f02a836040518082815260200191505060405180910390a1505050565b6001602052806000526040600020600091509050806000015490806001018054600181600116156101000203166002900480601f01602080910402602001604051908101604052809291908181526020018280546001816001161561010002031660029004801561068a5780601f1061065f5761010080835404028352916020019161068a565b820191906000526020600020905b81548152906001019060200180831161066d57829003601f168201915b505050505090806002018054600181600116156101000203166002900480601f0160208091040260200160405190810160405280929190818152602001828054600181600116156101000203166002900480156107285780601f106106fd57610100808354040283529160200191610728565b820191906000526020600020905b81548152906001019060200180831161070b57829003601f168201915b5050505050908060030154905084565b6040518060800160405280600054815260200184815260200183815260200182815250600160008054815260200190815260200160002060008201518160000155602082015181600101908051906020019061079592919061085d565b5060408201518160020190805190602001906107b292919061085d565b50606082015181600301559050507feec6cbf19f825fa29ac63f8a0ecc673af6144c77a4ef506f8cc955b56805f02a6000546040518082815260200191505060405180910390a16000808154809291906001019190505550505050565b60005481565b50805460018160011615610100020316600290046000825580601f1061083b575061085a565b601f01602090049060005260206000209081019061085991906108dd565b5b50565b828054600181600116156101000203166002900490600052602060002090601f016020900481019282601f1061089e57805160ff19168380011785556108cc565b828001600101855582156108cc579182015b828111156108cb5782518255916020019190600101906108b0565b5b5090506108d991906108dd565b5090565b6108ff91905b808211156108fb5760008160009055506001016108e3565b5090565b9056fea265627a7a72315820d53de53e8acb250483fd99ea0d123074d249dbc650df32819fd0eae1c2d7226364736f6c63430005100032",
  "source": "// SPDX-License-Identifier: GPL-3.0\n\npragma solidity >=0.4.22 <0.9.0;\n\ncontract TodosContract {\n    uint256 public todoCount;\n\n    struct Todos{\n        uint256 id;\n        string todoTitle;\n        string todoCategory;\n        uint256 timeStamp;\n    }\n\n    mapping(uint256 => Todos) public todos;\n\n    constructor() public {\n        todoCount = 0;\n    }\n\n\n    event TodoAdded(uint256 _id);\n    event TodoDeleted(uint256 _id);\n    event TodoEdited(uint256 _id);\n\n    function addTodo(string memory _todoTitle, string memory _todoCategory, uint256 timeStamp) public {\n        todos[todoCount] = Todos(\n            todoCount,\n            _todoTitle,\n            _todoCategory,\n            timeStamp\n        );\n        emit TodoAdded(todoCount);\n        todoCount++;\n    }\n\n    function deleteTodo(uint256 _id) public {\n        delete todos[_id];\n        emit TodoDeleted(_id);\n    }\n\n    function editTodo(\n        uint256 _id, string memory _todoTitle, string memory _todoCategory\n    ) public {\n        todos[_id] = Todos(_id, _todoTitle, _todoCategory, todos[_id].timeStamp);\n        emit TodoAdded(_id);\n    }\n}",
  "sourcePath": "/Users/shreebhagwat/Desktop/todo_trial_dapp/contracts/contracts/TodosContract.sol",
  "compiler": {
    "name": "solc",
    "version": "0.5.16+commit.9c3226ce.Emscripten.clang"
  },
  "schemaVersion": "3.4.4",
  "updatedAt": "2022-01-24T19:10:58.055Z",
  "networkType": "ethereum",
  "devdoc": {
    "methods": {}
  },
  "userdoc": {
    "methods": {}
  }
}